:1000000010308A00002800000A108A100A118207A6
:1000100028340C3401340634C330EC317536613A7F
:100020006F3900004E3461382026E1340001453933
:10003000F23772004E3461382026E13400014B3033
:10004000840083130008031933280130F800F701F6
:10005000F70B2828F80B27284A30F700F70B2E2833
:100060003128800B25280800521838280812392812
:100070000816831608128312D218402888124128C5
:1000800088168316881283125219482808134928A3
:100090000817831608138312D21950288813512881
:1000A0008817831688130000831288158316881119
:1000B0005928831288118316881183120800D301EE
:1000C0008316081600308312081A0130D3048316F1
:1000D000881600308312881A0130F7000310F70DDC
:1000E0007708D3048316081700308312081B0130E9
:1000F000F700F70DF70DFC30F7057708D3048316EA
:10010000881700308312881B0130F700F70DF70DB8
:10011000F70DF830F7057708D3045308F800080006
:1001200088108316881008168816081788178312F7
:10013000081583160811000083128815831688118C
:10014000000083125F207808D2008811831688117E
:1001500000008312881583168811000083125F2027
:100160007808D100881183168811081288120813A4
:1001700088138312520EF700F030F7057708510408
:10018000F8007808D100D11FC72883169328CF081C
:10019000031DCC288810CD288814831688100000F1
:1001A0008312081183160811000083128811831628
:1001B00088118312500ED1000F30D1055108D200A2
:1001C000342050080F39D100D200342008008316A3
:1001D00008128812081388138811881008118312D6
:1001E0008810831688108312081183160811831251
:1001F0008811831688110F308312CB001F20013025
:10020000B9003908033C031C0D290330D200342007
:100210000530CB001F20B90A01290230D20034205A
:10022000B9013908033C031C1E2939080420BA000F
:10023000CF013A08D0009020B90A11298A110A1674
:100240001C284C0B2529CD0139294C08023C031DE3
:100250002C294030CD0039294C08033C031D33299B
:100260001430CD0039294C08043C031D3929543081
:10027000CD0001304B02CD074D088038CE00CF01B4
:100280004E08D000902008004A080C3A03194F2964
:10029000063A03195729023A03195D296229CF0149
:1002A0000130D00090200230CB001F2067290130A0
:1002B000CB000230CC0021216729CF011030D000C3
:1002C000902067290130CF004A08D0009020080014
:1002D0000714201020088316870083128714A010AB
:1002E0002008831687008312071520112008831623
:1002F000870083128715A0112008831687008312B8
:100300000716201220088316870083128A110A1606
:1003100024280B08B9008B13831603178C170C14B1
:100320000000000083120313B91B8B1703170C087E
:100330007F390319DD290313B90003170D080313CF
:10034000BA0003170F080313BB003908CA00442181
:100350003A0803178D0003133B0803178F0003139C
:100360000B08BC008B13831603178C170C140000AA
:10037000000083120313BC1B8B1703170C0D0E0D0B
:100380007F390319DD290313B90003170D0803137F
:10039000BA0003170F080313BB003908CA00442131
:1003A0003A0803178D0003133B0803178F008D0ACB
:1003B00003198F0A03138929031703130800800800
:1003C0000319F429BA010408B9003A10831B3A143E
:1003D0000008CA0044213908840083133A1883179F
:1003E000840A0319850ADF298A110A164228071090
:1003F000201020088316870083128710A010200881
:1004000083168700831207112011200883168700A6
:1004100083128711A0112008831687008312071208
:1004200020122008831687000614831206181B2A40
:100430000130F8003D2A8316861483128618232A79
:100440000130F8003D2A83160615831206192B2A5F
:100450000130F8003D2A8316861583128619332A47
:100460000130F8003D2A831606168312061A3B2A2D
:100470000130F8003D2A0030F80008000714201071
:1004800020088316870083128714A0102008831683
:100490008700831207152011200883168700831216
:1004A0008715A011200883168700831207162012D3
:1004B000200883168700013083125402FB3E031884
:1004C000852A053E882A07102010200883168700F9
:1004D0008312852A8710A0102008831687008312B4
:1004E000852A071120112008831687008312852A88
:1004F0008711A0112008831687008312852A07120E
:10050000201220088316870083128A110A12E82A13
:100510000A108A140A118207632A6A2A712A782A21
:100520007F2A5330BA004330BB005430BC004F30F8
:10053000BD004130BE003730BF003830C000393018
:10054000C1002F30C2005230C3003430C4003530F7
:10055000C5003630C6005830C7005E30C8003130A4
:10056000C9003230CA003330CB002D30CC004430CB
:10057000CD004630CE003030CF003D30D0002B30A3
:10058000D1004130D200F721780B272B0A30D3005D
:1005900053308400831300080319DB2A0630F80067
:1005A000F701F70BD12AF80BD02A7B30F700F70BB5
:1005B000D72A800BCE2AF721780B262BB9013908D0
:1005C000043C031C262B01303907D300D4003E2AFB
:1005D0008316061483120618F42A3A303907840069
:1005E00083130008F800292B8316861483128618BB
:1005F000002B3F303907840083130008F800292BB3
:1006000083160615831206190C2B44303907840013
:1006100083130008F800292B831686158312861988
:10062000182B49303907840083130008F800292B60
:10063000831606168312061A242B4E3039078400BF
:1006400083130008F800292BB90ADF2A292B61300F
:10065000F80008000C30CA0044210130CB00CC0067
:100660002121A401A301A201A101A801A701A601C2
:10067000A5016130A9008A110A166E2865080319C0
:10068000AE2BED0069080319AE2BED0703184F2BB5
:100690007F30ED02031CAE2B0319AE2B532B8130A0
:1006A000ED070318AE2B6D08F700F801F901FA0108
:1006B0006608F100F1176708F0006808EF001830CD
:1006C000ED00EE016F1C7C2B6C08FA07031C6E2BEF
:1006D000F90A031D6E2BF80A0319EE176B08F907C8
:1006E000031C752BF80A0319EE176A08E700E717D1
:1006F0006708F8070318EE17EE0DF80CF90CFA0C62
:10070000F10CF00CEF0C0310ED0B612B0130F7072F
:100710000318AE2BF81B932BF10DFA0DF90DF80D04
:10072000F7030319AE2BF11FA42BFA0A031DA42B08
:10073000F90A031DA42BF80A031DA42BF80CF90CCD
:10074000FA0CF70A0319AE2B6608EE006A08EE06EB
:10075000EE1FAC2BF817B22BF813B22BF701F801F0
:10076000F901FA0108008E30F7006A08F8006908FC
:10077000F900FA01F808031DC72B7908F800F90100
:100780000830F702F808031DC72BF701CF2B031021
:10079000F81BCE2BF90DF80DF703C72BF813080043
:1007A00030303D02EA01E900B3238A110A16992884
:1007B00080308318EE068316A201A30183126A0813
:1007C0008316A10083126E088316A106831269089E
:1007D0000319EE2C8316A000F70083126D0803198D
:1007E000FB2C8316A0020319882C031C3A2C8312BD
:1007F0006E088316A600A61783126F088316A5003D
:100800007008A400A3010310A60CA50CA40CA30C53
:10081000A00B022CA11F0F2C2214142D221020102B
:1008200022166C3084008313292D2212A11B222C46
:10083000201C2D2CA60CA50CA40CA30CF70A031944
:100840000F2D2D2CA61B302C0310A30DA40DA50DD0
:10085000A60DF70303190F2D222C2217AE2C2213FD
:1008600083126A088316A100A11F382CA617082D31
:10087000A613082D83126D088316A000F7008312BB
:1008800069088316A00283126A088316A600A617B9
:1008900083126B088316A50083126C088316A400CC
:1008A000A3010310A60CA50CA40CA30CA00B502CA8
:1008B000A11F5D2CA214142DA2102010A2167030BE
:1008C00084008313292DA212A11B702C201C7B2CC9
:1008D000A60CA50CA40CA30CF70A03190F2D7B2C56
:1008E000A61B7E2C0310A30DA40DA50DA60DF703CA
:1008F00003190F2D702CA217AE2CA21383126E08B1
:100900008316A100A11F862CA617082DA613082D5B
:1009100083126E088316A600A61783126F0883162B
:10092000A5007008A400A11F992CA6132215142D50
:100930002211A30120106C3084008313292DA11BE8
:10094000C42C83126A088316A100201CAE2CA60CAE
:10095000A50CA40CA30CF70A03190F2DA31FBF2C81
:10096000A40A031DBF2CA50A031DBF2CA60A031D44
:10097000BF2CA60CA50CA40CF70A03190F2D221BE3
:100980002F2CA21B7D2CE72C8030A606A61FCE2C78
:10099000142D83126E088316A100DD2C83126A08C1
:1009A0008316A100A608031DDD2CA508031DDD2C60
:1009B000A408031DDD2CF701082DA61BE72C03104E
:1009C000A30DA40DA50DA60DF70BDD2C0F2DA11F5A
:1009D000EB2CA617082DA613082D83126D08F7001F
:1009E0006E088316A60083126F088316A500700890
:1009F000A400082D83126908F7006A088316A60070
:100A000083126B088316A50083126C088316A4005A
:100A10002608F8002508F9002408FA00472DF701F8
:100A2000F801F901FA01472DA301A409A509A609B6
:100A3000A309A30A031D222DA40A031D222DA50A22
:100A40000319A60A22180E2CA2185C2C2219982C25
:100A5000C92C0008A407031C332DA50A031D332D40
:100A6000A60A0319201484030008A507031C3B2DC4
:100A7000A60A0319201484030008801F803AA607E1
:100A800003182014221A152CA21A632C9F2C8312EF
:100A900008006608ED006A08ED06ED1F542D0311ED
:100AA0000310E61B0314872D6608ED006908EE00AD
:100AB0006508EE020319622DED1F872D0308013A28
:100AC0008300872D6A08EE006608EE0203196E2D7A
:100AD000ED1F872D0308013A8300872D6B08EE0078
:100AE0006708EE0203197A2DED1F872D0308013ADE
:100AF0008300872D6C08EE006808EE020319862D2E
:100B0000ED1F872D0308013A8300872D031008008D
:100B100083188D2D523084008313F701F801F901F9
:100B2000FA01D201D301D401D501510850044F0478
:100B30004E040319CB2D2030D6000310CA0DCB0D67
:100B4000CC0DCD0DD20DD30DD40DD50D51085502C0
:100B5000031DB42D50085402031DB42D4F08530239
:100B6000031DB42D4E085202031CC52D4E08D2029F
:100B70004F08031C4F0FD3025008031C500FD40220
:100B80005108031C510FD5020314F70DF80DF90D90
:100B9000FA0DD60B9D2D52088000840A5308800060
:100BA000840A54088000840A55088000080004085C
:100BB000C2004108C4000319F62D4008E8003F08B0
:100BC000E7003E08E6003D08E500EC01EB012030BF
:100BD000EA008230E9003E237A08C0007908BF00AD
:100BE0007808BE007708BD00C40BDD2D4008CD009D
:100BF0003F08CC003E08CB003D08CA004A08B63C7E
:100C0000CA00FA014B08CE00CB170310CB0CCC0C5A
:100C1000CD0CFA0CF90CF80CF70CCA0B052ECE1FF4
:100C20001C2EF709F809F909FA09F70A0319F80A55
:100C30000319F90A0319FA0A7A08C0007908BF00F3
:100C40007808BE007708BD00C01F332EC203C2164D
:100C5000BD09BE09BF09C009BD0A0319BE0A0319AF
:100C6000BF0A0319C00A3B30C9009A30C800CA3015
:100C7000C700C6010A30C40041080319C20A831420
:100C80003D30840083134008CD003F08CC003E086F
:100C9000CB003D08CA004908D1004808D0004708E9
:100CA000CF004608CE0088257808F708031D6B2E74
:100CB000410A440203196B2E420803196D2E0F39A5
:100CC00044020319652E03189D2EC21B9D2E421B44
:100CD0006D2E2030992E2030C205C21E7B2EC212EE
:100CE0004108031DC2037708C2002D30CA00442109
:100CF0004208F700C20141084402031D892E77080B
:100D0000C2002E30CA0044214208F7002030C2053C
:100D100000303030C21E992EC2124108031DC2039A
:100D20007708C2002D30CA0044214208F700C201F2
:100D30003030F7077708CA00442183104908CD00F6
:100D40004808CC004708CB004608CA00D101D001B2
:100D5000CF010A30CE0088257A08C9007908C8007A
:100D60007808C7007708C600C40B3F2E08005E084D
:100D700003197C2FEA00620803197C2FEA02031C86
:100D8000C62E7F30EA0703187C2FCC2E8130EA0272
:100D9000031C7C2F03197C2F6A08F700F801F90166
:100DA000FA01E9015F08E800E8176008E700610858
:100DB000E6001930EA006508E6020318EF2E01305C
:100DC000E7020318EF2EE8020318EF2EE9020318DA
:100DD000EF2EE90AE80AE70A6508E607212F64080A
:100DE000E70203180A2F0130E80203180A2FE9026C
:100DF00003180A2FE90AE80A6408E7076508E60706
:100E0000031C212FE70A031D212FE80A031D212FB0
:100E1000E90A212F63088038E8020318202F0130E7
:100E2000E9020318202FE90A63088038E8076408FC
:100E3000E707031CFE2EE80A031DFE2EE90AFE2E1C
:100E40007A14EA0B242F2F2F0310E60DE70DE80D7F
:100E5000E90D0310FA0DF90DF80DEB0DDB2E6B1CEF
:100E6000372F0310F80CF90CFA0CEB0C3A2FF703A0
:100E700003197C2FEB1B632F0310E60DE70DE80D24
:100E8000E90D6508E60203184F2F0130E702031849
:100E90004F2FE80203184F2FE902031C722F64083A
:100EA000E70203185A2F0130E80203185A2FE9020B
:100EB000031C722F63088038E8020318632F013087
:100EC000E902031C722FFA0A031D722FF90A031D8F
:100ED000722FF80A031D722FF70A03197C2FF80CE2
:100EE000F90CFA0C5F08EA006308EA06EA1F7A2F99
:100EF000F817802FF813802FF701F801F901FA0194
:100F000008008E30F7006508F7026608F9006708E8
:100F1000F800F917F7080319982F0310F908031DB3
:100F2000942FF8080319982FF90CF80CF70B8D2F54
:100F3000E61F9F2FF809F909F80A0319F90A0800B2
:100F40008E30F7005C08F8005B08F900FA01DC1F3E
:100F5000AE2FF809F909F90A0319F80AF808031D70
:100F6000BB2F7908F800F9010830F702F808031DD3
:100F7000BB2FF701C42F0310F81BC22FF90DF80D7A
:0A0F8000F703BB2FDC1FF813080075
:1010000064105808DD005708DC005608DB0055085E
:10101000DA005808E8005708E7005608E6005508C7
:10102000E500EC01EB01EA01E9018A1149258A1585
:10103000031C1E2864145B08803ADB005D08E8008E
:101040005C08E7005B08E6005A08E500EC01EB01EC
:10105000EA018E30E9008A1149258A1503183228E1
:10106000031D4D285D08E8005C08E7005B08E6000A
:101070005A08E5008A1181278A157908EA0078085C
:10108000E9008A11B3238A157A08E1007908E000A3
:101090007808DF007708DE0022295D08E8005C0898
:1010A000E7005B08E6005A08E5008030EC00963067
:1010B000EB001830EA009630E9008A1149258A15BC
:1010C000031C1A295D08E8005C08E7005B08E600DD
:1010D0005A08E500EC01EB01EA017030E9008A11E1
:1010E0003E238A157A08E8007908E7007808E600C8
:1010F0007708E5008A1181278A157908E3007808C6
:10110000E2005D08E8005C08E7005B08E6005A08BA
:10111000E500EC01EB01EA017030E9008A113E23A1
:101120008A157A08E8007908E7007808E600770869
:10113000E5006308EA006208E9008A11B3238A1512
:1011400083146808EC006708EB006608EA0065088D
:10115000E9007A08F0007908EF007808EE007708D7
:10116000ED008A11D8238A15E801E701E6018E30E7
:10117000E5007A08EC007908EB007808EA007708C7
:10118000E9008A113E238A157A08DD007908DC001F
:101190007808DB007708DA006308EA006208E900F3
:1011A0008A11B3238A15E801E701E6018E30E500D4
:1011B0007A08EC007908EB007808EA007708E90083
:1011C0008A113E238A157A08E1007908E000780840
:1011D000DF007708DE005D08E8005C08E7005B08D8
:1011E000E6005A08E5008A1181278A157908EA0085
:1011F0007808E9008A11B3238A1583106108EC008E
:101200006008EB005F08EA005E08E9007A08F00079
:101210007908EF007808EE007708ED008A11D823EE
:101220008A157A08E1007908E0007808DF0077087D
:10123000DE0022295D08E1005C08E0005B08DF00B9
:101240005A08DE005D08E8005C08E7005B08E6007D
:101250005A08E5008A1181278A157908EA0078087A
:10126000E9008A11B3238A1583145D08EC005C0839
:10127000EB005B08EA005A08E9007A08F0007908F8
:10128000EF007808EE007708ED008A11D8238A1560
:101290007A08DD007908DC007808DB007708DA00DE
:1012A000641C55295F08803ADF005D08E8005C088F
:1012B000E7005B08E6005A08E500EC01EB01EA01F3
:1012C000E9018A1149258A150319A129641C842979
:1012D000D908031D842983146108EC006008EB0021
:1012E0005F08EA005E08E900F001EF01EE017F30DF
:1012F000ED008A11D8238A157A08E1007908E00008
:101300007808DF007708DE006418A129590BA129AD
:1013100083106108EC006008EB005F08EA005E08DB
:10132000E900F001EF01EE017F30ED008A11D823D2
:101330008A157A08E1007908E0007808DF0077086C
:10134000DE005808E8005708E7005608E600550890
:10135000E500EC01EB01EA01E9018A1149258A1552
:10136000031DB629E101E001DF01DE015E08F7009F
:101370005F08F8006008F9006108FA0008004808F2
:10138000E8004708E7004608E6004508E500EC01EC
:10139000EB01EA01E9018A1149258A150319882A16
:1013A0004408E1004308E0004208DF004108DE0095
:1013B0004808E5004708E4004608E3004508E20065
:1013C0008A11B7268A157A08D0007908CF007808E4
:1013D000CE007708CD005008E8004F08E7004E081F
:1013E000E6004D08E500EC01EB01EA01E9018A1194
:1013F00049258A15031C2B2A4408E1004308E00014
:101400004208DF004108DE004808E5004708E40024
:101410004608E3004508E2008A11B7268A157A08D3
:10142000D0007908CF007808CE007708CD005008AA
:10143000D4004F08D3004E08D2004D08D100540804
:10144000D8005308D7005208D6005108D500013003
:10145000D9000020582A4408E1004308E00042086F
:10146000DF004108DE004808E5004708E4004608C0
:10147000E3004508E2008A11B7268A157A08D000F1
:101480007908CF007808CE007708CD005008D40046
:101490004F08D3004E08D2004D08D1005408D800A0
:1014A0005308D7005208D6005108D500D9010020B2
:1014B0007A08CC007908CB007808CA007708C90000
:1014C0004C08E8004B08E7004A08E6004908E50038
:1014D0004808EC004708EB004608EA004508E90028
:1014E0008A113E238A1583144408EC004308EB005C
:1014F0004208EA004108E9007A08F0007908EF00A4
:101500007808EE007708ED008A11D8238A15882A1A
:1015100008004808CC004708CB004608CA00450828
:10152000C9004C08E8004B08E7004A08E6004908F3
:10153000E500EC01EB01EA017F30E9008A11492561
:101540008A150319422CDB014930DA005A0884005D
:1015500083135B1883177E30800083144C08EC00E3
:101560004B08EB004A08EA004908E900F001EF01E6
:10157000EE017F30ED008A11D8238A157A08DD004C
:101580007908DC007808DB007708DA0083104C0863
:10159000EC004B08EB004A08EA004908E900F001BA
:1015A000EF01EE017F30ED008A11D8238A155D0826
:1015B000E1005C08E0005B08DF005A08DE007A0802
:1015C000E5007908E4007808E3007708E2008A1172
:1015D000B7268A157A08CC007908CB007808CA00AB
:1015E0007708C9004C08E8004B08E7004A08E60005
:1015F0004908E5004C08EC004B08EB004A08EA00FB
:101600004908E9008A113E238A157A08D80079082A
:10161000D7007808D6007708D5009930E800473021
:10162000E7008A30E6007F30E5005808EC005708F4
:10163000EB005608EA005508E9008A113E238A1596
:101640007A08DD007908DC007808DB007708DA002A
:1016500083105D08EC005C08EB005B08EA005A08A8
:10166000E900F001EF01EE018030ED008A11D8238E
:101670008A157A08D0007908CF007808CE0077085C
:10168000CD004C30E800F330E7003A30E6007B3024
:10169000E5005808EC005708EB005608EA0055082A
:1016A000E9008A113E238A157A08DD007908DC00FA
:1016B0007808DB007708DA0083105D08EC005C082E
:1016C000EB005B08EA005A08E9002B30F0009D307F
:1016D000EF00DF30EE007E30ED008A11D8238A154E
:1016E0007A08D4007908D3007808D2007708D100AE
:1016F0005408E8005308E7005208E6005108E500E6
:101700005808EC005708EB005608EA005508E900B5
:101710008A113E238A157A08DD007908DC007808F2
:10172000DB007708DA0083105D08EC005C08EB0052
:101730005B08EA005A08E900F001EF01EE017F3092
:10174000ED008A11D8238A157A08D4007908D300CD
:101750007808D2007708D1004C08E8004B08E70071
:101760004A08E6004908E5005008EC004F08EB0085
:101770004E08EA004D08E9008A113E238A157A08CE
:10178000DD007908DC007808DB007708DA005D0806
:10179000E1005C08E0005B08DF005A08DE00540846
:1017A000E5005308E4005208E3005108E2008A1102
:1017B000B7268A157A08D0007908CF007808CE00BD
:1017C0007708CD00DB014530DA005A088400831326
:1017D0005B1883177E300002D900D91F022C5908EC
:1017E000003CDC01DB00DB1BDC038A11A0278A152F
:1017F0007708D1007808803AD2007908D3007A08B7
:10180000D400122CDC015908DB00DB1BDC038A113D
:10181000A0278A157A08D4007908D3007808D20066
:101820007708D1005408E8005308E7005208E600A2
:101830005108E5001830EC007230EB003130EA005E
:101840007E30E9008A113E238A1583105008EC008F
:101850004F08EB004E08EA004D08E9007A08F00056
:101860007908EF007808EE007708ED008A11D82398
:101870008A157A08D0007908CF007808CE0077085A
:10188000CD00462CD001CF01CE01CD014D08F7008F
:101890004E08F8004F08F9005008FA000800480800
:1018A000E8004708E7004608E6004508E5003B3049
:1018B000EC00AA30EB003830EA007F30E9008A11F2
:1018C0003E238A157A08E8007908E7007808E600E0
:1018D0007708E5008A1181278A157808D500561007
:1018E0004808CC004708CB004608CA004508C90094
:1018F0004808E8004708E7004608E6004508E50014
:10190000EC01EB01EA01E9018A1149258A15031C62
:101910008F2C5614D509D50A4A08803ACA00D0013E
:10192000CF01CE01CD01D8014D30D700570884003A
:101930008313581883177F30550780004C08E80040
:101940004B08E7004A08E6004908E5003B30EC0098
:10195000AA30EB003830EA007F30E9008A113E23DC
:101960008A157A08DA007908D9007808D80077084B
:10197000D700DC015508DB00DB1BDC038A11A02744
:101980008A1583145A08EC005908EB005808EA003D
:101990005708E9007A08F0007908EF007808EE00AF
:1019A0007708ED008A11D8238A157A08CC007908C7
:1019B000CB007808CA007708C9007C30E80088307E
:1019C000E7005930E6007230E5004C08EC004B08A7
:1019D000EB004A08EA004908E9008A113E238A150B
:1019E0007A08DA007908D9007808D8007708D70093
:1019F00083107A08EC007908EB007808EA00770891
:101A0000E900E030F0009730EF002630EE0075304E
:101A1000ED008A11D8238A157A08D4007908D300FA
:101A20007808D2007708D1005408E8005308E7008E
:101A30005208E6005108E5004C08EC004B08EB00AA
:101A40004A08EA004908E9008A113E238A157A0803
:101A5000DA007908D9007808D8007708D700831011
:101A60007A08EC007908EB007808EA007708E900CA
:101A7000C430F0001D30EF001E30EE007830ED0075
:101A80008A11D8238A157A08D4007908D3007808F7
:101A9000D2007708D1005408E8005308E700520844
:101AA000E6005108E5004C08EC004B08EB004A0842
:101AB000EA004908E9008A113E238A157A08DA000B
:101AC0007908D9007808D8007708D70083107A08F9
:101AD000EC007908EB007808EA007708E9005E304E
:101AE000F0005030EF006330EE007A30ED008A11E4
:101AF000D8238A157A08D4007908D3007808D20050
:101B00007708D1005408E8005308E7005208E600BF
:101B10005108E5004C08EC004B08EB004A08EA00CD
:101B20004908E9008A113E238A157A08DA00790803
:101B3000D9007808D8007708D70083107A08EC001D
:101B40007908EB007808EA007708E9001A30F0001D
:101B5000FE30EF007530EE007C30ED008A11D823A6
:101B60008A157A08D4007908D3007808D20077085B
:101B7000D1005408E8005308E7005208E600510875
:101B8000E5004C08EC004B08EB004A08EA00490865
:101B9000E9008A113E238A157A08DA007908D9000B
:101BA0007808D8007708D70083107A08EC00790805
:101BB000EB007808EA007708E9001830F00072308E
:101BC000EF003130EE007E30ED008A11D8238A1507
:101BD0007A08D4007908D3007808D2007708D100B9
:101BE0004C08E8004B08E7004A08E6004908E50011
:101BF0005408EC005308EB005208EA005108E900D1
:101C00008A113E238A158310EC01EB01EA017F3033
:101C1000E9007A08F0007908EF007808EE0077080C
:101C2000ED008A11D8238A155008E8004F08E70014
:101C30004E08E6004D08E5007A08EC007908EB0054
:101C40007808EA007708E9008A113E238A157A08A5
:101C5000D0007908CF007808CE007708CD00561C58
:101C6000492EE101E001DF017F30DE005008E50090
:101C70004F08E4004E08E3004D08E2008A11B72641
:101C80008A157A08D0007908CF007808CE00770846
:101C9000CD004D08F7004E08F8004F08F900500835
:101CA000FA0008003C08E8003B08E7003A08E600B4
:101CB0003908E500EC01EB01EA01E9018A11492547
:101CC0008A15031C312F4008C4003F08C3003E089A
:101CD000C2003D08C100C801C701C6017F30C50070
:101CE000BF217A08C4007908C3007808C2007708C9
:101CF000C1004408E8004308E7004208E600410844
:101D0000E500EC01EB01EA01E9018A1149258A1598
:101D1000031D312F4008C4003F08C3003E08C20025
:101D20003D08C100C801C701C6018030C500BF2100
:101D30007A08C4007908C3007808C2007708C10097
:101D40004408E8004308E7004208E6004108E500CF
:101D5000EC01EB01EA01E9018A1149258A15031D0D
:101D6000F02E3908C1003A08803AC2003B08C3008F
:101D70003C08C400C8004308C7004208C600410828
:101D8000C50089227A08C4007908C3007808C20017
:101D90007708C1004408E8004308E7004208E6006D
:101DA0004108E5004008EC003F08EB003E08EA006F
:101DB0003D08E9008A113E238A157A08C400790893
:101DC000C3007808C2007708C1004408C80043086F
:101DD000C7004208C6004108C5004F24CE2F302F4F
:101DE0003908C1003A08803AC2003B08C3003C08E9
:101DF000C400C8004308C7004208C6004108C50027
:101E000089227A08C4007908C3007808C2007708DC
:101E1000C1004408E8004308E7004208E600410822
:101E2000E5004008EC003F08EB003E08EA003D08F2
:101E3000E9008A113E238A157A08C4007908C30094
:101E40007808C2007708C1004408C8004308C700EA
:101E50004208C6004108C5004F248030F806CE2F46
:101E6000CE2F3C08E8003B08E7003A08E6003908B6
:101E7000E500EC01EB01EA01E9018A1149258A1527
:101E8000031C6F2F4008C4003F08C3003E08C20077
:101E90003D08C100C801C701C6017F30C500BF2190
:101EA0007A08C4007908C3007808C2007708C10026
:101EB0004408E8004308E7004208E6004108E5005E
:101EC000EC01EB01EA01E9018A1149258A150319A0
:101ED0006F2FF701F801F901FA01CE2FCE2F3C0840
:101EE000E8003B08E7003A08E6003908E500EC01A5
:101EF000EB01EA01E9018A1149258A15031D932F97
:101F00004008E8003F08E7003E08E6003D08E5001D
:101F1000EC01EB01EA01E9018A1149258A15031850
:101F2000932F031DCA2F3C08C8003B08C7003A087E
:101F3000C6003908C50089227A08C4007908C300A0
:101F40007808C2007708C1004408E8004308E700A9
:101F50004208E6004108E5004008EC003F08EB00BD
:101F60003E08EA003D08E9008A113E238A157A08F6
:101F7000C4007908C3007808C2007708C10044088B
:101F8000C8004308C7004208C6004108C5004F24E6
:101F9000CE2FCE2FF701F801F901FA018A110A16A6
:021FA0001D2AF8
:1020000003081F398300FF30A000A401A301A2012F
:10201000A101A801A701A601A501AB01AA01831690
:102020001F149F141F159F1107309C0083136130EC
:102030008312AC000A12E7280A160C30CA000A12F2
:1020400044210A160A1268290A160130CB00CC0076
:102050000A1221210A160C3003178D0000308F0060
:102060000A12031389210A160130CB000230CC007A
:102070000A1221210A162C08840083132D188317B5
:102080000A12DF290A160430B900FA30CB000A120E
:102090001F200A16B90B45280C30CA000A12442129
:1020A0000A16B001AF01AE01AD01B401B301B20136
:1020B000B1010130CB00CC000A1221210A160A120C
:1020C00091220A167808AC002C08613C03196F288D
:1020D0002C08463C031D6F280A122A2B0A162C08CE
:1020E0002F3C0318C1282C08393C031CC1282C089C
:1020F000CA000A1244210A163008E8002F08E70037
:102100002E08E6002D08E500EC01EB012030EA0086
:102110008230E9000A123E230A167A08BC007908C8
:10212000BB007808BA007708B9002C08BD000A1275
:10213000D02B0A16BE010408BD003E10831B3E14BE
:1021400083103C08EC003B08EB003A08EA00390831
:10215000E9007A08F0007908EF007808EE007708C7
:10216000ED000A12D8230A163D08840083133E1896
:1021700083177A08B0007908AF007808AE007708B6
:10218000AD002C082B3C0319D5282C082D3C031935
:10219000D5282C08783C0319D5282C082F3C031986
:1021A000D5282C085E3C031DE8282C08CA000A121A
:1021B00044210A163008B4002F08B3002E08B200DC
:1021C0002D08B100B001AF01AE01AD012C08A9008E
:1021D0002C083D3C031D362A2C08CA000A12442153
:1021E0000A160130CB000230CC000A1221210A1657
:1021F0003008E8002F08E7002E08E6002D08E5006B
:10220000EC01EB01EA01E9010A1249250A16031D56
:102210001229123003178D0000308F000A120313A9
:1022200089210A1629082B3A03192329063A03198A
:102230004E29553A03197929573A0319A329713AB6
:102240000319F329E92983103408EC003308EB0063
:102250003208EA003108E9003008F0002F08EF00EA
:102260002E08EE002D08ED000A12D8230A167A086F
:10227000BC007908BB007808BA007708B90089303B
:1022800084003C08C0003B08BF003A08BE00390883
:10229000BD00C1010A12D7250A16362A8314340854
:1022A000EC003308EB003208EA003108E90030089E
:1022B000F0002F08EF002E08EE002D08ED000A12A6
:1022C000D8230A167A08BC007908BB007808BA003F
:1022D0007708B900893084003C08C0003B08BF0083
:1022E0003A08BE003908BD00C1010A12D7250A16F6
:1022F000362A3408E8003308E7003208E6003108DF
:10230000E5003008EC002F08EB002E08EA002D084D
:10231000E9000A123E230A167A08BC007908BB00BD
:102320007808BA007708B900893084003C08C000FA
:102330003B08BF003A08BE003908BD00C1010A12BF
:10234000D7250A16362A3008E8002F08E7002E089D
:10235000E6002D08E500EC01EB01EA01E9010A12B3
:1023600049250A16031DBE29173003178D000030BA
:102370008F000A12031389210A16E8293408E100A4
:102380003308E0003208DF003108DE003008E500E5
:102390002F08E4002E08E3002D08E2000A12B726F9
:1023A0000A167A08B8007908B7007808B6007708E6
:1023B000B500893084003808C0003708BF003608EF
:1023C000BE003508BD000330C1000A12D7250A1629
:1023D000362A1A3003178D0000308F000A120313BB
:1023E00089210A16362A3008E8002F08E7002E084F
:1023F000E6002D08E500EC01EB01EA01E9010A1213
:1024000049250A16031D0A2A3130CA000A1244213E
:102410000A16362A3408BC003308BB003208BA005A
:102420003108B9003008C0002F08BF002E08BE00D8
:102430002D08BD000A128A15522E0A168A117A0832
:10244000BC007908BB007808BA007708B900893069
:1024500084003C08C0003B08BF003A08BE003908B1
:10246000BD000330C1000A12D7250A162C08613CB2
:102470000319402A0A1291220A167808AC00362A5B
:042480005F2863006E
:02400E00323F3F
:00000001FF
;PIC16F877A
;CRC=00CB  CREATED="09-Apr-23 16:36"
